{
  "address": "0xe7f1725E7734CE288F8367e1Bb143E90bb3F0512",
  "abi": [
    {
      "inputs": [
        {
          "internalType": "address",
          "name": "priceFeedAddress",
          "type": "address"
        }
      ],
      "stateMutability": "nonpayable",
      "type": "constructor"
    },
    {
      "inputs": [],
      "name": "FundMe__NotOwner",
      "type": "error"
    },
    {
      "anonymous": false,
      "inputs": [
        {
          "indexed": false,
          "internalType": "address",
          "name": "from",
          "type": "address"
        },
        {
          "indexed": false,
          "internalType": "address",
          "name": "receiver",
          "type": "address"
        },
        {
          "indexed": false,
          "internalType": "uint256",
          "name": "amount",
          "type": "uint256"
        },
        {
          "indexed": false,
          "internalType": "string",
          "name": "message",
          "type": "string"
        },
        {
          "indexed": false,
          "internalType": "uint256",
          "name": "timestamp",
          "type": "uint256"
        },
        {
          "indexed": false,
          "internalType": "string",
          "name": "keyword",
          "type": "string"
        }
      ],
      "name": "Transfer",
      "type": "event"
    },
    {
      "anonymous": false,
      "inputs": [
        {
          "indexed": false,
          "internalType": "address",
          "name": "from",
          "type": "address"
        },
        {
          "indexed": false,
          "internalType": "address",
          "name": "reciever",
          "type": "address"
        },
        {
          "indexed": false,
          "internalType": "uint256",
          "name": "amount",
          "type": "uint256"
        },
        {
          "indexed": false,
          "internalType": "string",
          "name": "message",
          "type": "string"
        },
        {
          "indexed": false,
          "internalType": "uint256",
          "name": "timestamp",
          "type": "uint256"
        },
        {
          "indexed": false,
          "internalType": "string",
          "name": "keyword",
          "type": "string"
        }
      ],
      "name": "crowFundTransfer",
      "type": "event"
    },
    {
      "stateMutability": "payable",
      "type": "fallback"
    },
    {
      "inputs": [],
      "name": "MINIMUM_USD",
      "outputs": [
        {
          "internalType": "uint256",
          "name": "",
          "type": "uint256"
        }
      ],
      "stateMutability": "view",
      "type": "function"
    },
    {
      "inputs": [
        {
          "internalType": "address payable",
          "name": "receiver",
          "type": "address"
        },
        {
          "internalType": "uint256",
          "name": "amount",
          "type": "uint256"
        },
        {
          "internalType": "string",
          "name": "message",
          "type": "string"
        },
        {
          "internalType": "string",
          "name": "keyword",
          "type": "string"
        }
      ],
      "name": "addCrowFundTransactionToBlockchain",
      "outputs": [],
      "stateMutability": "nonpayable",
      "type": "function"
    },
    {
      "inputs": [
        {
          "internalType": "address payable",
          "name": "receiver",
          "type": "address"
        },
        {
          "internalType": "uint256",
          "name": "amount",
          "type": "uint256"
        },
        {
          "internalType": "string",
          "name": "message",
          "type": "string"
        },
        {
          "internalType": "string",
          "name": "keyword",
          "type": "string"
        }
      ],
      "name": "addToBlockchain",
      "outputs": [],
      "stateMutability": "nonpayable",
      "type": "function"
    },
    {
      "inputs": [
        {
          "internalType": "uint256",
          "name": "",
          "type": "uint256"
        }
      ],
      "name": "crowFundTransactions",
      "outputs": [
        {
          "internalType": "address",
          "name": "sender",
          "type": "address"
        },
        {
          "internalType": "address",
          "name": "receiver",
          "type": "address"
        },
        {
          "internalType": "uint256",
          "name": "amount",
          "type": "uint256"
        },
        {
          "internalType": "string",
          "name": "message",
          "type": "string"
        },
        {
          "internalType": "uint256",
          "name": "timestamp",
          "type": "uint256"
        },
        {
          "internalType": "string",
          "name": "keyword",
          "type": "string"
        }
      ],
      "stateMutability": "view",
      "type": "function"
    },
    {
      "inputs": [],
      "name": "fund",
      "outputs": [],
      "stateMutability": "payable",
      "type": "function"
    },
    {
      "inputs": [],
      "name": "getAllCrowFundTransactions",
      "outputs": [
        {
          "components": [
            {
              "internalType": "address",
              "name": "sender",
              "type": "address"
            },
            {
              "internalType": "address",
              "name": "receiver",
              "type": "address"
            },
            {
              "internalType": "uint256",
              "name": "amount",
              "type": "uint256"
            },
            {
              "internalType": "string",
              "name": "message",
              "type": "string"
            },
            {
              "internalType": "uint256",
              "name": "timestamp",
              "type": "uint256"
            },
            {
              "internalType": "string",
              "name": "keyword",
              "type": "string"
            }
          ],
          "internalType": "struct FundMe.CrowFundTransfertStruct[]",
          "name": "",
          "type": "tuple[]"
        }
      ],
      "stateMutability": "view",
      "type": "function"
    },
    {
      "inputs": [],
      "name": "getAllTransactions",
      "outputs": [
        {
          "components": [
            {
              "internalType": "address",
              "name": "sender",
              "type": "address"
            },
            {
              "internalType": "address",
              "name": "receiver",
              "type": "address"
            },
            {
              "internalType": "uint256",
              "name": "amount",
              "type": "uint256"
            },
            {
              "internalType": "string",
              "name": "message",
              "type": "string"
            },
            {
              "internalType": "uint256",
              "name": "timestamp",
              "type": "uint256"
            },
            {
              "internalType": "string",
              "name": "keyword",
              "type": "string"
            }
          ],
          "internalType": "struct FundMe.TransferStruct[]",
          "name": "",
          "type": "tuple[]"
        }
      ],
      "stateMutability": "view",
      "type": "function"
    },
    {
      "inputs": [],
      "name": "getCrowFundTransactionCount",
      "outputs": [
        {
          "internalType": "uint256",
          "name": "",
          "type": "uint256"
        }
      ],
      "stateMutability": "view",
      "type": "function"
    },
    {
      "inputs": [],
      "name": "getTransactionCount",
      "outputs": [
        {
          "internalType": "uint256",
          "name": "",
          "type": "uint256"
        }
      ],
      "stateMutability": "view",
      "type": "function"
    },
    {
      "inputs": [],
      "name": "i_owner",
      "outputs": [
        {
          "internalType": "address",
          "name": "",
          "type": "address"
        }
      ],
      "stateMutability": "view",
      "type": "function"
    },
    {
      "inputs": [
        {
          "internalType": "address",
          "name": "",
          "type": "address"
        }
      ],
      "name": "s_addressToAmountFunded",
      "outputs": [
        {
          "internalType": "uint256",
          "name": "",
          "type": "uint256"
        }
      ],
      "stateMutability": "view",
      "type": "function"
    },
    {
      "inputs": [
        {
          "internalType": "uint256",
          "name": "",
          "type": "uint256"
        }
      ],
      "name": "s_funders",
      "outputs": [
        {
          "internalType": "address",
          "name": "",
          "type": "address"
        }
      ],
      "stateMutability": "view",
      "type": "function"
    },
    {
      "inputs": [],
      "name": "s_priceFeed",
      "outputs": [
        {
          "internalType": "contract AggregatorV3Interface",
          "name": "",
          "type": "address"
        }
      ],
      "stateMutability": "view",
      "type": "function"
    },
    {
      "inputs": [
        {
          "internalType": "uint256",
          "name": "",
          "type": "uint256"
        }
      ],
      "name": "transactions",
      "outputs": [
        {
          "internalType": "address",
          "name": "sender",
          "type": "address"
        },
        {
          "internalType": "address",
          "name": "receiver",
          "type": "address"
        },
        {
          "internalType": "uint256",
          "name": "amount",
          "type": "uint256"
        },
        {
          "internalType": "string",
          "name": "message",
          "type": "string"
        },
        {
          "internalType": "uint256",
          "name": "timestamp",
          "type": "uint256"
        },
        {
          "internalType": "string",
          "name": "keyword",
          "type": "string"
        }
      ],
      "stateMutability": "view",
      "type": "function"
    },
    {
      "inputs": [],
      "name": "withdraw",
      "outputs": [],
      "stateMutability": "payable",
      "type": "function"
    },
    {
      "inputs": [],
      "name": "withdrawCheaper",
      "outputs": [],
      "stateMutability": "payable",
      "type": "function"
    },
    {
      "stateMutability": "payable",
      "type": "receive"
    }
  ],
  "transactionHash": "0x1551dc226a36ea693069146eac3a5b03a5a8a86835864cad2b9c308db2ed139d",
  "args": [
    "0x5FbDB2315678afecb367f032d93F642f64180aa3"
  ],
  "numDeployments": 1,
  "solcInputHash": "9fcebd420c70ec93903af3462aa35e63",
  "bytecode": "0x60a06040523480156200001157600080fd5b506040516200278d3803806200278d833981810160405281019062000037919062000120565b3373ffffffffffffffffffffffffffffffffffffffff1660808173ffffffffffffffffffffffffffffffffffffffff1660601b8152505080600660006101000a81548173ffffffffffffffffffffffffffffffffffffffff021916908373ffffffffffffffffffffffffffffffffffffffff1602179055505062000152565b600080fd5b600073ffffffffffffffffffffffffffffffffffffffff82169050919050565b6000620000e882620000bb565b9050919050565b620000fa81620000db565b81146200010657600080fd5b50565b6000815190506200011a81620000ef565b92915050565b600060208284031215620001395762000138620000b6565b5b6000620001498482850162000109565b91505092915050565b60805160601c6126076200018660003960008181610a0701528181610e2f01528181611025015261158701526126076000f3fe6080604052600436106100f75760003560e01c80636b69a5921161008a578063b60d428811610059578063b60d428814610312578063cc2d7ead1461031c578063d7f6c74b14610345578063dba6335f14610370576100fe565b80636b69a592146102725780639ace38c21461029d578063a13fe71f146102df578063b3740275146102e9576100fe565b806327506f53116100c657806327506f53146101d55780632e7700f0146102005780633ccfd60b1461022b57806354861af714610235576100fe565b80630ec3b02714610100578063109ec9a71461012b5780631b82785b1461016d5780631bf6132d14610198576100fe565b366100fe57005b005b34801561010c57600080fd5b5061011561039b565b6040516101229190611831565b60405180910390f35b34801561013757600080fd5b50610152600480360381019061014d9190611896565b6103c1565b6040516101649695949392919061198c565b60405180910390f35b34801561017957600080fd5b5061018261055d565b60405161018f9190611bb5565b60405180910390f35b3480156101a457600080fd5b506101bf60048036038101906101ba9190611c03565b6107a0565b6040516101cc9190611c30565b60405180910390f35b3480156101e157600080fd5b506101ea6107b8565b6040516101f79190611d9d565b60405180910390f35b34801561020c57600080fd5b506102156109fb565b6040516102229190611c30565b60405180910390f35b610233610a05565b005b34801561024157600080fd5b5061025c60048036038101906102579190611896565b610c45565b6040516102699190611dbf565b60405180910390f35b34801561027e57600080fd5b50610287610c84565b6040516102949190611c30565b60405180910390f35b3480156102a957600080fd5b506102c460048036038101906102bf9190611896565b610c91565b6040516102d69695949392919061198c565b60405180910390f35b6102e7610e2d565b005b3480156102f557600080fd5b50610310600480360381019061030b9190611f4d565b6110bb565b005b61031a61127e565b005b34801561032857600080fd5b50610343600480360381019061033e9190611f4d565b6113b8565b005b34801561035157600080fd5b5061035a61157b565b6040516103679190611c30565b60405180910390f35b34801561037c57600080fd5b50610385611585565b6040516103929190611dbf565b60405180910390f35b600660009054906101000a900473ffffffffffffffffffffffffffffffffffffffff1681565b600581815481106103d157600080fd5b90600052602060002090600602016000915090508060000160009054906101000a900473ffffffffffffffffffffffffffffffffffffffff16908060010160009054906101000a900473ffffffffffffffffffffffffffffffffffffffff16908060020154908060030180546104469061201b565b80601f01602080910402602001604051908101604052809291908181526020018280546104729061201b565b80156104bf5780601f10610494576101008083540402835291602001916104bf565b820191906000526020600020905b8154815290600101906020018083116104a257829003601f168201915b5050505050908060040154908060050180546104da9061201b565b80601f01602080910402602001604051908101604052809291908181526020018280546105069061201b565b80156105535780601f1061052857610100808354040283529160200191610553565b820191906000526020600020905b81548152906001019060200180831161053657829003601f168201915b5050505050905086565b60606005805480602002602001604051908101604052809291908181526020016000905b8282101561079757838290600052602060002090600602016040518060c00160405290816000820160009054906101000a900473ffffffffffffffffffffffffffffffffffffffff1673ffffffffffffffffffffffffffffffffffffffff1673ffffffffffffffffffffffffffffffffffffffff1681526020016001820160009054906101000a900473ffffffffffffffffffffffffffffffffffffffff1673ffffffffffffffffffffffffffffffffffffffff1673ffffffffffffffffffffffffffffffffffffffff1681526020016002820154815260200160038201805461066a9061201b565b80601f01602080910402602001604051908101604052809291908181526020018280546106969061201b565b80156106e35780601f106106b8576101008083540402835291602001916106e3565b820191906000526020600020905b8154815290600101906020018083116106c657829003601f168201915b50505050508152602001600482015481526020016005820180546107069061201b565b80601f01602080910402602001604051908101604052809291908181526020018280546107329061201b565b801561077f5780601f106107545761010080835404028352916020019161077f565b820191906000526020600020905b81548152906001019060200180831161076257829003601f168201915b50505050508152505081526020019060010190610581565b50505050905090565b60006020528060005260406000206000915090505481565b60606004805480602002602001604051908101604052809291908181526020016000905b828210156109f257838290600052602060002090600602016040518060c00160405290816000820160009054906101000a900473ffffffffffffffffffffffffffffffffffffffff1673ffffffffffffffffffffffffffffffffffffffff1673ffffffffffffffffffffffffffffffffffffffff1681526020016001820160009054906101000a900473ffffffffffffffffffffffffffffffffffffffff1673ffffffffffffffffffffffffffffffffffffffff1673ffffffffffffffffffffffffffffffffffffffff168152602001600282015481526020016003820180546108c59061201b565b80601f01602080910402602001604051908101604052809291908181526020018280546108f19061201b565b801561093e5780601f106109135761010080835404028352916020019161093e565b820191906000526020600020905b81548152906001019060200180831161092157829003601f168201915b50505050508152602001600482015481526020016005820180546109619061201b565b80601f016020809104026020016040519081016040528092919081815260200182805461098d9061201b565b80156109da5780601f106109af576101008083540402835291602001916109da565b820191906000526020600020905b8154815290600101906020018083116109bd57829003601f168201915b505050505081525050815260200190600101906107dc565b50505050905090565b6000600254905090565b7f000000000000000000000000000000000000000000000000000000000000000073ffffffffffffffffffffffffffffffffffffffff163373ffffffffffffffffffffffffffffffffffffffff1614610a8a576040517f579610db00000000000000000000000000000000000000000000000000000000815260040160405180910390fd5b60005b600180549050811015610b3557600060018281548110610ab057610aaf61204d565b5b9060005260206000200160009054906101000a900473ffffffffffffffffffffffffffffffffffffffff16905060008060008373ffffffffffffffffffffffffffffffffffffffff1673ffffffffffffffffffffffffffffffffffffffff16815260200190815260200160002081905550508080610b2d906120ab565b915050610a8d565b50600067ffffffffffffffff811115610b5157610b50611e22565b5b604051908082528060200260200182016040528015610b7f5781602001602082028036833780820191505090505b5060019080519060200190610b95929190611685565b5060003373ffffffffffffffffffffffffffffffffffffffff1647604051610bbc90612125565b60006040518083038185875af1925050503d8060008114610bf9576040519150601f19603f3d011682016040523d82523d6000602084013e610bfe565b606091505b5050905080610c42576040517f08c379a0000000000000000000000000000000000000000000000000000000008152600401610c3990612186565b60405180910390fd5b50565b60018181548110610c5557600080fd5b906000526020600020016000915054906101000a900473ffffffffffffffffffffffffffffffffffffffff1681565b6802b5e3af16b188000081565b60048181548110610ca157600080fd5b90600052602060002090600602016000915090508060000160009054906101000a900473ffffffffffffffffffffffffffffffffffffffff16908060010160009054906101000a900473ffffffffffffffffffffffffffffffffffffffff1690806002015490806003018054610d169061201b565b80601f0160208091040260200160405190810160405280929190818152602001828054610d429061201b565b8015610d8f5780601f10610d6457610100808354040283529160200191610d8f565b820191906000526020600020905b815481529060010190602001808311610d7257829003601f168201915b505050505090806004015490806005018054610daa9061201b565b80601f0160208091040260200160405190810160405280929190818152602001828054610dd69061201b565b8015610e235780601f10610df857610100808354040283529160200191610e23565b820191906000526020600020905b815481529060010190602001808311610e0657829003601f168201915b5050505050905086565b7f000000000000000000000000000000000000000000000000000000000000000073ffffffffffffffffffffffffffffffffffffffff163373ffffffffffffffffffffffffffffffffffffffff1614610eb2576040517f579610db00000000000000000000000000000000000000000000000000000000815260040160405180910390fd5b60006001805480602002602001604051908101604052809291908181526020018280548015610f3657602002820191906000526020600020905b8160009054906101000a900473ffffffffffffffffffffffffffffffffffffffff1673ffffffffffffffffffffffffffffffffffffffff1681526020019060010190808311610eec575b5050505050905060005b8151811015610fc0576000828281518110610f5e57610f5d61204d565b5b6020026020010151905060008060008373ffffffffffffffffffffffffffffffffffffffff1673ffffffffffffffffffffffffffffffffffffffff16815260200190815260200160002081905550508080610fb8906120ab565b915050610f40565b50600067ffffffffffffffff811115610fdc57610fdb611e22565b5b60405190808252806020026020018201604052801561100a5781602001602082028036833780820191505090505b5060019080519060200190611020929190611685565b5060007f000000000000000000000000000000000000000000000000000000000000000073ffffffffffffffffffffffffffffffffffffffff164760405161106790612125565b60006040518083038185875af1925050503d80600081146110a4576040519150601f19603f3d011682016040523d82523d6000602084013e6110a9565b606091505b50509050806110b757600080fd5b5050565b6001600360008282546110ce91906121a6565b9250508190555060056040518060c001604052803373ffffffffffffffffffffffffffffffffffffffff1681526020018673ffffffffffffffffffffffffffffffffffffffff16815260200185815260200184815260200142815260200183815250908060018154018082558091505060019003906000526020600020906006020160009091909190915060008201518160000160006101000a81548173ffffffffffffffffffffffffffffffffffffffff021916908373ffffffffffffffffffffffffffffffffffffffff16021790555060208201518160010160006101000a81548173ffffffffffffffffffffffffffffffffffffffff021916908373ffffffffffffffffffffffffffffffffffffffff16021790555060408201518160020155606082015181600301908051906020019061120d92919061170f565b506080820151816004015560a082015181600501908051906020019061123492919061170f565b5050507fd43b3a5aa76c028d4bc5d0aa0053f4f0cb5f4fcdbcf91f3657b1135a70c22f5e3385858542866040516112709695949392919061221d565b60405180910390a150505050565b6802b5e3af16b18800006112bd600660009054906101000a900473ffffffffffffffffffffffffffffffffffffffff16346115a990919063ffffffff16565b10156112fe576040517f08c379a00000000000000000000000000000000000000000000000000000000081526004016112f5906122d8565b60405180910390fd5b346000803373ffffffffffffffffffffffffffffffffffffffff1673ffffffffffffffffffffffffffffffffffffffff168152602001908152602001600020600082825461134c91906121a6565b925050819055506001339080600181540180825580915050600190039060005260206000200160009091909190916101000a81548173ffffffffffffffffffffffffffffffffffffffff021916908373ffffffffffffffffffffffffffffffffffffffff160217905550565b6001600260008282546113cb91906121a6565b9250508190555060046040518060c001604052803373ffffffffffffffffffffffffffffffffffffffff1681526020018673ffffffffffffffffffffffffffffffffffffffff16815260200185815260200184815260200142815260200183815250908060018154018082558091505060019003906000526020600020906006020160009091909190915060008201518160000160006101000a81548173ffffffffffffffffffffffffffffffffffffffff021916908373ffffffffffffffffffffffffffffffffffffffff16021790555060208201518160010160006101000a81548173ffffffffffffffffffffffffffffffffffffffff021916908373ffffffffffffffffffffffffffffffffffffffff16021790555060408201518160020155606082015181600301908051906020019061150a92919061170f565b506080820151816004015560a082015181600501908051906020019061153192919061170f565b5050507f416cfa4330a4565f45c2fd2dd4826a83a37443aba2ce6f79477c7355afac35fa33858585428660405161156d9695949392919061221d565b60405180910390a150505050565b6000600354905090565b7f000000000000000000000000000000000000000000000000000000000000000081565b6000806115b5836115e5565b90506000670de0b6b3a764000085836115ce91906122f8565b6115d89190612381565b9050809250505092915050565b6000808273ffffffffffffffffffffffffffffffffffffffff1663feaf968c6040518163ffffffff1660e01b815260040160a06040518083038186803b15801561162e57600080fd5b505afa158015611642573d6000803e3d6000fd5b505050506040513d601f19601f82011682018060405250810190611666919061243f565b5050509150506402540be4008161167d91906124ba565b915050919050565b8280548282559060005260206000209081019282156116fe579160200282015b828111156116fd5782518260006101000a81548173ffffffffffffffffffffffffffffffffffffffff021916908373ffffffffffffffffffffffffffffffffffffffff160217905550916020019190600101906116a5565b5b50905061170b9190611795565b5090565b82805461171b9061201b565b90600052602060002090601f01602090048101928261173d5760008555611784565b82601f1061175657805160ff1916838001178555611784565b82800160010185558215611784579182015b82811115611783578251825591602001919060010190611768565b5b5090506117919190611795565b5090565b5b808211156117ae576000816000905550600101611796565b5090565b600073ffffffffffffffffffffffffffffffffffffffff82169050919050565b6000819050919050565b60006117f76117f26117ed846117b2565b6117d2565b6117b2565b9050919050565b6000611809826117dc565b9050919050565b600061181b826117fe565b9050919050565b61182b81611810565b82525050565b60006020820190506118466000830184611822565b92915050565b6000604051905090565b600080fd5b600080fd5b6000819050919050565b61187381611860565b811461187e57600080fd5b50565b6000813590506118908161186a565b92915050565b6000602082840312156118ac576118ab611856565b5b60006118ba84828501611881565b91505092915050565b60006118ce826117b2565b9050919050565b6118de816118c3565b82525050565b6118ed81611860565b82525050565b600081519050919050565b600082825260208201905092915050565b60005b8381101561192d578082015181840152602081019050611912565b8381111561193c576000848401525b50505050565b6000601f19601f8301169050919050565b600061195e826118f3565b61196881856118fe565b935061197881856020860161190f565b61198181611942565b840191505092915050565b600060c0820190506119a160008301896118d5565b6119ae60208301886118d5565b6119bb60408301876118e4565b81810360608301526119cd8186611953565b90506119dc60808301856118e4565b81810360a08301526119ee8184611953565b9050979650505050505050565b600081519050919050565b600082825260208201905092915050565b6000819050602082019050919050565b611a30816118c3565b82525050565b611a3f81611860565b82525050565b600082825260208201905092915050565b6000611a61826118f3565b611a6b8185611a45565b9350611a7b81856020860161190f565b611a8481611942565b840191505092915050565b600060c083016000830151611aa76000860182611a27565b506020830151611aba6020860182611a27565b506040830151611acd6040860182611a36565b5060608301518482036060860152611ae58282611a56565b9150506080830151611afa6080860182611a36565b5060a083015184820360a0860152611b128282611a56565b9150508091505092915050565b6000611b2b8383611a8f565b905092915050565b6000602082019050919050565b6000611b4b826119fb565b611b558185611a06565b935083602082028501611b6785611a17565b8060005b85811015611ba35784840389528151611b848582611b1f565b9450611b8f83611b33565b925060208a01995050600181019050611b6b565b50829750879550505050505092915050565b60006020820190508181036000830152611bcf8184611b40565b905092915050565b611be0816118c3565b8114611beb57600080fd5b50565b600081359050611bfd81611bd7565b92915050565b600060208284031215611c1957611c18611856565b5b6000611c2784828501611bee565b91505092915050565b6000602082019050611c4560008301846118e4565b92915050565b600081519050919050565b600082825260208201905092915050565b6000819050602082019050919050565b600060c083016000830151611c8f6000860182611a27565b506020830151611ca26020860182611a27565b506040830151611cb56040860182611a36565b5060608301518482036060860152611ccd8282611a56565b9150506080830151611ce26080860182611a36565b5060a083015184820360a0860152611cfa8282611a56565b9150508091505092915050565b6000611d138383611c77565b905092915050565b6000602082019050919050565b6000611d3382611c4b565b611d3d8185611c56565b935083602082028501611d4f85611c67565b8060005b85811015611d8b5784840389528151611d6c8582611d07565b9450611d7783611d1b565b925060208a01995050600181019050611d53565b50829750879550505050505092915050565b60006020820190508181036000830152611db78184611d28565b905092915050565b6000602082019050611dd460008301846118d5565b92915050565b6000611de5826117b2565b9050919050565b611df581611dda565b8114611e0057600080fd5b50565b600081359050611e1281611dec565b92915050565b600080fd5b600080fd5b7f4e487b7100000000000000000000000000000000000000000000000000000000600052604160045260246000fd5b611e5a82611942565b810181811067ffffffffffffffff82111715611e7957611e78611e22565b5b80604052505050565b6000611e8c61184c565b9050611e988282611e51565b919050565b600067ffffffffffffffff821115611eb857611eb7611e22565b5b611ec182611942565b9050602081019050919050565b82818337600083830152505050565b6000611ef0611eeb84611e9d565b611e82565b905082815260208101848484011115611f0c57611f0b611e1d565b5b611f17848285611ece565b509392505050565b600082601f830112611f3457611f33611e18565b5b8135611f44848260208601611edd565b91505092915050565b60008060008060808587031215611f6757611f66611856565b5b6000611f7587828801611e03565b9450506020611f8687828801611881565b935050604085013567ffffffffffffffff811115611fa757611fa661185b565b5b611fb387828801611f1f565b925050606085013567ffffffffffffffff811115611fd457611fd361185b565b5b611fe087828801611f1f565b91505092959194509250565b7f4e487b7100000000000000000000000000000000000000000000000000000000600052602260045260246000fd5b6000600282049050600182168061203357607f821691505b6020821081141561204757612046611fec565b5b50919050565b7f4e487b7100000000000000000000000000000000000000000000000000000000600052603260045260246000fd5b7f4e487b7100000000000000000000000000000000000000000000000000000000600052601160045260246000fd5b60006120b682611860565b91507fffffffffffffffffffffffffffffffffffffffffffffffffffffffffffffffff8214156120e9576120e861207c565b5b600182019050919050565b600081905092915050565b50565b600061210f6000836120f4565b915061211a826120ff565b600082019050919050565b600061213082612102565b9150819050919050565b7f43616c6c206661696c6564000000000000000000000000000000000000000000600082015250565b6000612170600b836118fe565b915061217b8261213a565b602082019050919050565b6000602082019050818103600083015261219f81612163565b9050919050565b60006121b182611860565b91506121bc83611860565b9250827fffffffffffffffffffffffffffffffffffffffffffffffffffffffffffffffff038211156121f1576121f061207c565b5b828201905092915050565b6000612207826117fe565b9050919050565b612217816121fc565b82525050565b600060c08201905061223260008301896118d5565b61223f602083018861220e565b61224c60408301876118e4565b818103606083015261225e8186611953565b905061226d60808301856118e4565b81810360a083015261227f8184611953565b9050979650505050505050565b7f596f75206e65656420746f207370656e64206d6f726520455448210000000000600082015250565b60006122c2601b836118fe565b91506122cd8261228c565b602082019050919050565b600060208201905081810360008301526122f1816122b5565b9050919050565b600061230382611860565b915061230e83611860565b9250817fffffffffffffffffffffffffffffffffffffffffffffffffffffffffffffffff04831182151516156123475761234661207c565b5b828202905092915050565b7f4e487b7100000000000000000000000000000000000000000000000000000000600052601260045260246000fd5b600061238c82611860565b915061239783611860565b9250826123a7576123a6612352565b5b828204905092915050565b600069ffffffffffffffffffff82169050919050565b6123d1816123b2565b81146123dc57600080fd5b50565b6000815190506123ee816123c8565b92915050565b6000819050919050565b612407816123f4565b811461241257600080fd5b50565b600081519050612424816123fe565b92915050565b6000815190506124398161186a565b92915050565b600080600080600060a0868803121561245b5761245a611856565b5b6000612469888289016123df565b955050602061247a88828901612415565b945050604061248b8882890161242a565b935050606061249c8882890161242a565b92505060806124ad888289016123df565b9150509295509295909350565b60006124c5826123f4565b91506124d0836123f4565b9250827f7fffffffffffffffffffffffffffffffffffffffffffffffffffffffffffffff048211600084136000841316161561250f5761250e61207c565b5b817f8000000000000000000000000000000000000000000000000000000000000000058312600084126000841316161561254c5761254b61207c565b5b827f800000000000000000000000000000000000000000000000000000000000000005821260008413600084121616156125895761258861207c565b5b827f7fffffffffffffffffffffffffffffffffffffffffffffffffffffffffffffff05821260008412600084121616156125c6576125c561207c565b5b82820290509291505056fea2646970667358221220bd726e80e93dea3961b144c84643e96f69252a4599f0d0603137df9d7b216c7264736f6c63430008080033",
  "devdoc": {
    "author": "Carlos Vouking",
    "details": "This embeds the PriceFeed library from Chainlink.",
    "kind": "dev",
    "methods": {
      "fund()": {
        "details": "The library PriceFeed is implemented here."
      }
    },
    "title": "A simple crowd funding contract",
    "version": 1
  },
  "userdoc": {
    "kind": "user",
    "methods": {
      "fund()": {
        "notice": "Function is used to fund the contract 'FundMe'"
      }
    },
    "notice": "Its a basic crow funding contract which can be extended",
    "version": 1
  },
  "storageLayout": {
    "storage": [
      {
        "astId": 60,
        "contract": "contracts/FundMe.sol:FundMe",
        "label": "s_addressToAmountFunded",
        "offset": 0,
        "slot": "0",
        "type": "t_mapping(t_address,t_uint256)"
      },
      {
        "astId": 63,
        "contract": "contracts/FundMe.sol:FundMe",
        "label": "s_funders",
        "offset": 0,
        "slot": "1",
        "type": "t_array(t_address)dyn_storage"
      },
      {
        "astId": 65,
        "contract": "contracts/FundMe.sol:FundMe",
        "label": "transactionCount",
        "offset": 0,
        "slot": "2",
        "type": "t_uint256"
      },
      {
        "astId": 67,
        "contract": "contracts/FundMe.sol:FundMe",
        "label": "crowFundTransactionCount",
        "offset": 0,
        "slot": "3",
        "type": "t_uint256"
      },
      {
        "astId": 134,
        "contract": "contracts/FundMe.sol:FundMe",
        "label": "transactions",
        "offset": 0,
        "slot": "4",
        "type": "t_array(t_struct(TransferStruct)103_storage)dyn_storage"
      },
      {
        "astId": 138,
        "contract": "contracts/FundMe.sol:FundMe",
        "label": "crowFundTransactions",
        "offset": 0,
        "slot": "5",
        "type": "t_array(t_struct(CrowFundTransfertStruct)130_storage)dyn_storage"
      },
      {
        "astId": 141,
        "contract": "contracts/FundMe.sol:FundMe",
        "label": "s_priceFeed",
        "offset": 0,
        "slot": "6",
        "type": "t_contract(AggregatorV3Interface)45"
      }
    ],
    "types": {
      "t_address": {
        "encoding": "inplace",
        "label": "address",
        "numberOfBytes": "20"
      },
      "t_array(t_address)dyn_storage": {
        "base": "t_address",
        "encoding": "dynamic_array",
        "label": "address[]",
        "numberOfBytes": "32"
      },
      "t_array(t_struct(CrowFundTransfertStruct)130_storage)dyn_storage": {
        "base": "t_struct(CrowFundTransfertStruct)130_storage",
        "encoding": "dynamic_array",
        "label": "struct FundMe.CrowFundTransfertStruct[]",
        "numberOfBytes": "32"
      },
      "t_array(t_struct(TransferStruct)103_storage)dyn_storage": {
        "base": "t_struct(TransferStruct)103_storage",
        "encoding": "dynamic_array",
        "label": "struct FundMe.TransferStruct[]",
        "numberOfBytes": "32"
      },
      "t_contract(AggregatorV3Interface)45": {
        "encoding": "inplace",
        "label": "contract AggregatorV3Interface",
        "numberOfBytes": "20"
      },
      "t_mapping(t_address,t_uint256)": {
        "encoding": "mapping",
        "key": "t_address",
        "label": "mapping(address => uint256)",
        "numberOfBytes": "32",
        "value": "t_uint256"
      },
      "t_string_storage": {
        "encoding": "bytes",
        "label": "string",
        "numberOfBytes": "32"
      },
      "t_struct(CrowFundTransfertStruct)130_storage": {
        "encoding": "inplace",
        "label": "struct FundMe.CrowFundTransfertStruct",
        "members": [
          {
            "astId": 119,
            "contract": "contracts/FundMe.sol:FundMe",
            "label": "sender",
            "offset": 0,
            "slot": "0",
            "type": "t_address"
          },
          {
            "astId": 121,
            "contract": "contracts/FundMe.sol:FundMe",
            "label": "receiver",
            "offset": 0,
            "slot": "1",
            "type": "t_address"
          },
          {
            "astId": 123,
            "contract": "contracts/FundMe.sol:FundMe",
            "label": "amount",
            "offset": 0,
            "slot": "2",
            "type": "t_uint256"
          },
          {
            "astId": 125,
            "contract": "contracts/FundMe.sol:FundMe",
            "label": "message",
            "offset": 0,
            "slot": "3",
            "type": "t_string_storage"
          },
          {
            "astId": 127,
            "contract": "contracts/FundMe.sol:FundMe",
            "label": "timestamp",
            "offset": 0,
            "slot": "4",
            "type": "t_uint256"
          },
          {
            "astId": 129,
            "contract": "contracts/FundMe.sol:FundMe",
            "label": "keyword",
            "offset": 0,
            "slot": "5",
            "type": "t_string_storage"
          }
        ],
        "numberOfBytes": "192"
      },
      "t_struct(TransferStruct)103_storage": {
        "encoding": "inplace",
        "label": "struct FundMe.TransferStruct",
        "members": [
          {
            "astId": 92,
            "contract": "contracts/FundMe.sol:FundMe",
            "label": "sender",
            "offset": 0,
            "slot": "0",
            "type": "t_address"
          },
          {
            "astId": 94,
            "contract": "contracts/FundMe.sol:FundMe",
            "label": "receiver",
            "offset": 0,
            "slot": "1",
            "type": "t_address"
          },
          {
            "astId": 96,
            "contract": "contracts/FundMe.sol:FundMe",
            "label": "amount",
            "offset": 0,
            "slot": "2",
            "type": "t_uint256"
          },
          {
            "astId": 98,
            "contract": "contracts/FundMe.sol:FundMe",
            "label": "message",
            "offset": 0,
            "slot": "3",
            "type": "t_string_storage"
          },
          {
            "astId": 100,
            "contract": "contracts/FundMe.sol:FundMe",
            "label": "timestamp",
            "offset": 0,
            "slot": "4",
            "type": "t_uint256"
          },
          {
            "astId": 102,
            "contract": "contracts/FundMe.sol:FundMe",
            "label": "keyword",
            "offset": 0,
            "slot": "5",
            "type": "t_string_storage"
          }
        ],
        "numberOfBytes": "192"
      },
      "t_uint256": {
        "encoding": "inplace",
        "label": "uint256",
        "numberOfBytes": "32"
      }
    }
  }
}