{
  "address": "0xa068F6Fa0D1F294c7148B9917a70c50f9f271951",
  "abi": [
    {
      "inputs": [
        {
          "internalType": "address",
          "name": "priceFeedAddress",
          "type": "address"
        }
      ],
      "stateMutability": "nonpayable",
      "type": "constructor"
    },
    {
      "inputs": [],
      "name": "FundMe__NotOwner",
      "type": "error"
    },
    {
      "anonymous": false,
      "inputs": [
        {
          "indexed": false,
          "internalType": "address",
          "name": "from",
          "type": "address"
        },
        {
          "indexed": false,
          "internalType": "address",
          "name": "receiver",
          "type": "address"
        },
        {
          "indexed": false,
          "internalType": "uint256",
          "name": "amount",
          "type": "uint256"
        },
        {
          "indexed": false,
          "internalType": "string",
          "name": "message",
          "type": "string"
        },
        {
          "indexed": false,
          "internalType": "uint256",
          "name": "timestamp",
          "type": "uint256"
        },
        {
          "indexed": false,
          "internalType": "string",
          "name": "keyword",
          "type": "string"
        }
      ],
      "name": "Transfer",
      "type": "event"
    },
    {
      "inputs": [],
      "name": "MINIMUM_USD",
      "outputs": [
        {
          "internalType": "uint256",
          "name": "",
          "type": "uint256"
        }
      ],
      "stateMutability": "view",
      "type": "function"
    },
    {
      "inputs": [
        {
          "internalType": "address payable",
          "name": "receiver",
          "type": "address"
        },
        {
          "internalType": "uint256",
          "name": "amount",
          "type": "uint256"
        },
        {
          "internalType": "string",
          "name": "message",
          "type": "string"
        },
        {
          "internalType": "string",
          "name": "keyword",
          "type": "string"
        }
      ],
      "name": "addToBlockchain",
      "outputs": [],
      "stateMutability": "nonpayable",
      "type": "function"
    },
    {
      "inputs": [],
      "name": "fund",
      "outputs": [],
      "stateMutability": "payable",
      "type": "function"
    },
    {
      "inputs": [],
      "name": "getAllTransactions",
      "outputs": [
        {
          "components": [
            {
              "internalType": "address",
              "name": "sender",
              "type": "address"
            },
            {
              "internalType": "address",
              "name": "receiver",
              "type": "address"
            },
            {
              "internalType": "uint256",
              "name": "amount",
              "type": "uint256"
            },
            {
              "internalType": "string",
              "name": "message",
              "type": "string"
            },
            {
              "internalType": "uint256",
              "name": "timestamp",
              "type": "uint256"
            },
            {
              "internalType": "string",
              "name": "keyword",
              "type": "string"
            }
          ],
          "internalType": "struct FundMe.TransferStruct[]",
          "name": "",
          "type": "tuple[]"
        }
      ],
      "stateMutability": "view",
      "type": "function"
    },
    {
      "inputs": [],
      "name": "getTransactionCount",
      "outputs": [
        {
          "internalType": "uint256",
          "name": "",
          "type": "uint256"
        }
      ],
      "stateMutability": "view",
      "type": "function"
    },
    {
      "inputs": [],
      "name": "i_owner",
      "outputs": [
        {
          "internalType": "address",
          "name": "",
          "type": "address"
        }
      ],
      "stateMutability": "view",
      "type": "function"
    },
    {
      "inputs": [
        {
          "internalType": "address",
          "name": "",
          "type": "address"
        }
      ],
      "name": "s_addressToAmountFunded",
      "outputs": [
        {
          "internalType": "uint256",
          "name": "",
          "type": "uint256"
        }
      ],
      "stateMutability": "view",
      "type": "function"
    },
    {
      "inputs": [
        {
          "internalType": "uint256",
          "name": "",
          "type": "uint256"
        }
      ],
      "name": "s_funders",
      "outputs": [
        {
          "internalType": "address",
          "name": "",
          "type": "address"
        }
      ],
      "stateMutability": "view",
      "type": "function"
    },
    {
      "inputs": [],
      "name": "s_priceFeed",
      "outputs": [
        {
          "internalType": "contract AggregatorV3Interface",
          "name": "",
          "type": "address"
        }
      ],
      "stateMutability": "view",
      "type": "function"
    },
    {
      "inputs": [],
      "name": "withdraw",
      "outputs": [],
      "stateMutability": "payable",
      "type": "function"
    },
    {
      "inputs": [],
      "name": "withdrawCheaper",
      "outputs": [],
      "stateMutability": "payable",
      "type": "function"
    }
  ],
  "transactionHash": "0x21253d635a49eea48c3041023fd267fd9838c03d86dbfac6638b40f6b58ff9c0",
  "args": [
    "0x8A753747A1Fa494EC906cE90E9f37563A8AF630e"
  ],
  "numDeployments": 4,
  "solcInputHash": "ea3338d8534f6a9f66564dd757a46663",
  "bytecode": "0x60a06040523480156200001157600080fd5b5060405162001d0038038062001d00833981810160405281019062000037919062000120565b3373ffffffffffffffffffffffffffffffffffffffff1660808173ffffffffffffffffffffffffffffffffffffffff1660601b8152505080600460006101000a81548173ffffffffffffffffffffffffffffffffffffffff021916908373ffffffffffffffffffffffffffffffffffffffff1602179055505062000152565b600080fd5b600073ffffffffffffffffffffffffffffffffffffffff82169050919050565b6000620000e882620000bb565b9050919050565b620000fa81620000db565b81146200010657600080fd5b50565b6000815190506200011a81620000ef565b92915050565b600060208284031215620001395762000138620000b6565b5b6000620001498482850162000109565b91505092915050565b60805160601c611b7a62000186600039600081816104c601528181610752015281816109480152610cdd0152611b7a6000f3fe60806040526004361061009c5760003560e01c806354861af71161006457806354861af7146101695780636b69a592146101a6578063a13fe71f146101d1578063b60d4288146101db578063cc2d7ead146101e5578063dba6335f1461020e5761009c565b80630ec3b027146100a15780631bf6132d146100cc57806327506f53146101095780632e7700f0146101345780633ccfd60b1461015f575b600080fd5b3480156100ad57600080fd5b506100b6610239565b6040516100c39190610f87565b60405180910390f35b3480156100d857600080fd5b506100f360048036038101906100ee9190610ff4565b61025f565b604051610100919061103a565b60405180910390f35b34801561011557600080fd5b5061011e610277565b60405161012b919061125e565b60405180910390f35b34801561014057600080fd5b506101496104ba565b604051610156919061103a565b60405180910390f35b6101676104c4565b005b34801561017557600080fd5b50610190600480360381019061018b91906112ac565b610704565b60405161019d91906112e8565b60405180910390f35b3480156101b257600080fd5b506101bb610743565b6040516101c8919061103a565b60405180910390f35b6101d9610750565b005b6101e36109de565b005b3480156101f157600080fd5b5061020c60048036038101906102079190611476565b610b18565b005b34801561021a57600080fd5b50610223610cdb565b60405161023091906112e8565b60405180910390f35b600460009054906101000a900473ffffffffffffffffffffffffffffffffffffffff1681565b60006020528060005260406000206000915090505481565b60606003805480602002602001604051908101604052809291908181526020016000905b828210156104b157838290600052602060002090600602016040518060c00160405290816000820160009054906101000a900473ffffffffffffffffffffffffffffffffffffffff1673ffffffffffffffffffffffffffffffffffffffff1673ffffffffffffffffffffffffffffffffffffffff1681526020016001820160009054906101000a900473ffffffffffffffffffffffffffffffffffffffff1673ffffffffffffffffffffffffffffffffffffffff1673ffffffffffffffffffffffffffffffffffffffff1681526020016002820154815260200160038201805461038490611544565b80601f01602080910402602001604051908101604052809291908181526020018280546103b090611544565b80156103fd5780601f106103d2576101008083540402835291602001916103fd565b820191906000526020600020905b8154815290600101906020018083116103e057829003601f168201915b505050505081526020016004820154815260200160058201805461042090611544565b80601f016020809104026020016040519081016040528092919081815260200182805461044c90611544565b80156104995780601f1061046e57610100808354040283529160200191610499565b820191906000526020600020905b81548152906001019060200180831161047c57829003601f168201915b5050505050815250508152602001906001019061029b565b50505050905090565b6000600254905090565b7f000000000000000000000000000000000000000000000000000000000000000073ffffffffffffffffffffffffffffffffffffffff163373ffffffffffffffffffffffffffffffffffffffff1614610549576040517f579610db00000000000000000000000000000000000000000000000000000000815260040160405180910390fd5b60005b6001805490508110156105f45760006001828154811061056f5761056e611576565b5b9060005260206000200160009054906101000a900473ffffffffffffffffffffffffffffffffffffffff16905060008060008373ffffffffffffffffffffffffffffffffffffffff1673ffffffffffffffffffffffffffffffffffffffff168152602001908152602001600020819055505080806105ec906115d4565b91505061054c565b50600067ffffffffffffffff8111156106105761060f61134b565b5b60405190808252806020026020018201604052801561063e5781602001602082028036833780820191505090505b5060019080519060200190610654929190610ddb565b5060003373ffffffffffffffffffffffffffffffffffffffff164760405161067b9061164e565b60006040518083038185875af1925050503d80600081146106b8576040519150601f19603f3d011682016040523d82523d6000602084013e6106bd565b606091505b5050905080610701576040517f08c379a00000000000000000000000000000000000000000000000000000000081526004016106f8906116c0565b60405180910390fd5b50565b6001818154811061071457600080fd5b906000526020600020016000915054906101000a900473ffffffffffffffffffffffffffffffffffffffff1681565b6802b5e3af16b188000081565b7f000000000000000000000000000000000000000000000000000000000000000073ffffffffffffffffffffffffffffffffffffffff163373ffffffffffffffffffffffffffffffffffffffff16146107d5576040517f579610db00000000000000000000000000000000000000000000000000000000815260040160405180910390fd5b6000600180548060200260200160405190810160405280929190818152602001828054801561085957602002820191906000526020600020905b8160009054906101000a900473ffffffffffffffffffffffffffffffffffffffff1673ffffffffffffffffffffffffffffffffffffffff168152602001906001019080831161080f575b5050505050905060005b81518110156108e357600082828151811061088157610880611576565b5b6020026020010151905060008060008373ffffffffffffffffffffffffffffffffffffffff1673ffffffffffffffffffffffffffffffffffffffff168152602001908152602001600020819055505080806108db906115d4565b915050610863565b50600067ffffffffffffffff8111156108ff576108fe61134b565b5b60405190808252806020026020018201604052801561092d5781602001602082028036833780820191505090505b5060019080519060200190610943929190610ddb565b5060007f000000000000000000000000000000000000000000000000000000000000000073ffffffffffffffffffffffffffffffffffffffff164760405161098a9061164e565b60006040518083038185875af1925050503d80600081146109c7576040519150601f19603f3d011682016040523d82523d6000602084013e6109cc565b606091505b50509050806109da57600080fd5b5050565b6802b5e3af16b1880000610a1d600460009054906101000a900473ffffffffffffffffffffffffffffffffffffffff1634610cff90919063ffffffff16565b1015610a5e576040517f08c379a0000000000000000000000000000000000000000000000000000000008152600401610a559061172c565b60405180910390fd5b346000803373ffffffffffffffffffffffffffffffffffffffff1673ffffffffffffffffffffffffffffffffffffffff1681526020019081526020016000206000828254610aac919061174c565b925050819055506001339080600181540180825580915050600190039060005260206000200160009091909190916101000a81548173ffffffffffffffffffffffffffffffffffffffff021916908373ffffffffffffffffffffffffffffffffffffffff160217905550565b600160026000828254610b2b919061174c565b9250508190555060036040518060c001604052803373ffffffffffffffffffffffffffffffffffffffff1681526020018673ffffffffffffffffffffffffffffffffffffffff16815260200185815260200184815260200142815260200183815250908060018154018082558091505060019003906000526020600020906006020160009091909190915060008201518160000160006101000a81548173ffffffffffffffffffffffffffffffffffffffff021916908373ffffffffffffffffffffffffffffffffffffffff16021790555060208201518160010160006101000a81548173ffffffffffffffffffffffffffffffffffffffff021916908373ffffffffffffffffffffffffffffffffffffffff160217905550604082015181600201556060820151816003019080519060200190610c6a929190610e65565b506080820151816004015560a0820151816005019080519060200190610c91929190610e65565b5050507f416cfa4330a4565f45c2fd2dd4826a83a37443aba2ce6f79477c7355afac35fa338585854286604051610ccd969594939291906117fc565b60405180910390a150505050565b7f000000000000000000000000000000000000000000000000000000000000000081565b600080610d0b83610d3b565b90506000670de0b6b3a76400008583610d24919061186b565b610d2e91906118f4565b9050809250505092915050565b6000808273ffffffffffffffffffffffffffffffffffffffff1663feaf968c6040518163ffffffff1660e01b815260040160a06040518083038186803b158015610d8457600080fd5b505afa158015610d98573d6000803e3d6000fd5b505050506040513d601f19601f82011682018060405250810190610dbc91906119b2565b5050509150506402540be40081610dd39190611a2d565b915050919050565b828054828255906000526020600020908101928215610e54579160200282015b82811115610e535782518260006101000a81548173ffffffffffffffffffffffffffffffffffffffff021916908373ffffffffffffffffffffffffffffffffffffffff16021790555091602001919060010190610dfb565b5b509050610e619190610eeb565b5090565b828054610e7190611544565b90600052602060002090601f016020900481019282610e935760008555610eda565b82601f10610eac57805160ff1916838001178555610eda565b82800160010185558215610eda579182015b82811115610ed9578251825591602001919060010190610ebe565b5b509050610ee79190610eeb565b5090565b5b80821115610f04576000816000905550600101610eec565b5090565b600073ffffffffffffffffffffffffffffffffffffffff82169050919050565b6000819050919050565b6000610f4d610f48610f4384610f08565b610f28565b610f08565b9050919050565b6000610f5f82610f32565b9050919050565b6000610f7182610f54565b9050919050565b610f8181610f66565b82525050565b6000602082019050610f9c6000830184610f78565b92915050565b6000604051905090565b600080fd5b600080fd5b6000610fc182610f08565b9050919050565b610fd181610fb6565b8114610fdc57600080fd5b50565b600081359050610fee81610fc8565b92915050565b60006020828403121561100a57611009610fac565b5b600061101884828501610fdf565b91505092915050565b6000819050919050565b61103481611021565b82525050565b600060208201905061104f600083018461102b565b92915050565b600081519050919050565b600082825260208201905092915050565b6000819050602082019050919050565b61108a81610fb6565b82525050565b61109981611021565b82525050565b600081519050919050565b600082825260208201905092915050565b60005b838110156110d95780820151818401526020810190506110be565b838111156110e8576000848401525b50505050565b6000601f19601f8301169050919050565b600061110a8261109f565b61111481856110aa565b93506111248185602086016110bb565b61112d816110ee565b840191505092915050565b600060c0830160008301516111506000860182611081565b5060208301516111636020860182611081565b5060408301516111766040860182611090565b506060830151848203606086015261118e82826110ff565b91505060808301516111a36080860182611090565b5060a083015184820360a08601526111bb82826110ff565b9150508091505092915050565b60006111d48383611138565b905092915050565b6000602082019050919050565b60006111f482611055565b6111fe8185611060565b93508360208202850161121085611071565b8060005b8581101561124c578484038952815161122d85826111c8565b9450611238836111dc565b925060208a01995050600181019050611214565b50829750879550505050505092915050565b6000602082019050818103600083015261127881846111e9565b905092915050565b61128981611021565b811461129457600080fd5b50565b6000813590506112a681611280565b92915050565b6000602082840312156112c2576112c1610fac565b5b60006112d084828501611297565b91505092915050565b6112e281610fb6565b82525050565b60006020820190506112fd60008301846112d9565b92915050565b600061130e82610f08565b9050919050565b61131e81611303565b811461132957600080fd5b50565b60008135905061133b81611315565b92915050565b600080fd5b600080fd5b7f4e487b7100000000000000000000000000000000000000000000000000000000600052604160045260246000fd5b611383826110ee565b810181811067ffffffffffffffff821117156113a2576113a161134b565b5b80604052505050565b60006113b5610fa2565b90506113c1828261137a565b919050565b600067ffffffffffffffff8211156113e1576113e061134b565b5b6113ea826110ee565b9050602081019050919050565b82818337600083830152505050565b6000611419611414846113c6565b6113ab565b90508281526020810184848401111561143557611434611346565b5b6114408482856113f7565b509392505050565b600082601f83011261145d5761145c611341565b5b813561146d848260208601611406565b91505092915050565b600080600080608085870312156114905761148f610fac565b5b600061149e8782880161132c565b94505060206114af87828801611297565b935050604085013567ffffffffffffffff8111156114d0576114cf610fb1565b5b6114dc87828801611448565b925050606085013567ffffffffffffffff8111156114fd576114fc610fb1565b5b61150987828801611448565b91505092959194509250565b7f4e487b7100000000000000000000000000000000000000000000000000000000600052602260045260246000fd5b6000600282049050600182168061155c57607f821691505b602082108114156115705761156f611515565b5b50919050565b7f4e487b7100000000000000000000000000000000000000000000000000000000600052603260045260246000fd5b7f4e487b7100000000000000000000000000000000000000000000000000000000600052601160045260246000fd5b60006115df82611021565b91507fffffffffffffffffffffffffffffffffffffffffffffffffffffffffffffffff821415611612576116116115a5565b5b600182019050919050565b600081905092915050565b50565b600061163860008361161d565b915061164382611628565b600082019050919050565b60006116598261162b565b9150819050919050565b600082825260208201905092915050565b7f43616c6c206661696c6564000000000000000000000000000000000000000000600082015250565b60006116aa600b83611663565b91506116b582611674565b602082019050919050565b600060208201905081810360008301526116d98161169d565b9050919050565b7f596f75206e65656420746f207370656e64206d6f726520455448210000000000600082015250565b6000611716601b83611663565b9150611721826116e0565b602082019050919050565b6000602082019050818103600083015261174581611709565b9050919050565b600061175782611021565b915061176283611021565b9250827fffffffffffffffffffffffffffffffffffffffffffffffffffffffffffffffff03821115611797576117966115a5565b5b828201905092915050565b60006117ad82610f54565b9050919050565b6117bd816117a2565b82525050565b60006117ce8261109f565b6117d88185611663565b93506117e88185602086016110bb565b6117f1816110ee565b840191505092915050565b600060c08201905061181160008301896112d9565b61181e60208301886117b4565b61182b604083018761102b565b818103606083015261183d81866117c3565b905061184c608083018561102b565b81810360a083015261185e81846117c3565b9050979650505050505050565b600061187682611021565b915061188183611021565b9250817fffffffffffffffffffffffffffffffffffffffffffffffffffffffffffffffff04831182151516156118ba576118b96115a5565b5b828202905092915050565b7f4e487b7100000000000000000000000000000000000000000000000000000000600052601260045260246000fd5b60006118ff82611021565b915061190a83611021565b92508261191a576119196118c5565b5b828204905092915050565b600069ffffffffffffffffffff82169050919050565b61194481611925565b811461194f57600080fd5b50565b6000815190506119618161193b565b92915050565b6000819050919050565b61197a81611967565b811461198557600080fd5b50565b60008151905061199781611971565b92915050565b6000815190506119ac81611280565b92915050565b600080600080600060a086880312156119ce576119cd610fac565b5b60006119dc88828901611952565b95505060206119ed88828901611988565b94505060406119fe8882890161199d565b9350506060611a0f8882890161199d565b9250506080611a2088828901611952565b9150509295509295909350565b6000611a3882611967565b9150611a4383611967565b9250827f7fffffffffffffffffffffffffffffffffffffffffffffffffffffffffffffff0482116000841360008413161615611a8257611a816115a5565b5b817f80000000000000000000000000000000000000000000000000000000000000000583126000841260008413161615611abf57611abe6115a5565b5b827f80000000000000000000000000000000000000000000000000000000000000000582126000841360008412161615611afc57611afb6115a5565b5b827f7fffffffffffffffffffffffffffffffffffffffffffffffffffffffffffffff0582126000841260008412161615611b3957611b386115a5565b5b82820290509291505056fea26469706673582212209ac6b377225ff6db9d53b7d8f3910f203924bdb312127440893098f01d8170b064736f6c63430008080033",
  "devdoc": {
    "author": "Carlos Vouking",
    "details": "This embeds the PriceFeed library from Chainlink.",
    "kind": "dev",
    "methods": {
      "fund()": {
        "details": "The library PriceFeed is implemented here."
      }
    },
    "title": "A simple crowd funding contract",
    "version": 1
  },
  "userdoc": {
    "kind": "user",
    "methods": {
      "fund()": {
        "notice": "Function is used to fund the contract 'FundMe'"
      }
    },
    "notice": "Its a basic crow funding contract which can be extended",
    "version": 1
  },
  "storageLayout": {
    "storage": [
      {
        "astId": 60,
        "contract": "contracts/FundMe.sol:FundMe",
        "label": "s_addressToAmountFunded",
        "offset": 0,
        "slot": "0",
        "type": "t_mapping(t_address,t_uint256)"
      },
      {
        "astId": 63,
        "contract": "contracts/FundMe.sol:FundMe",
        "label": "s_funders",
        "offset": 0,
        "slot": "1",
        "type": "t_array(t_address)dyn_storage"
      },
      {
        "astId": 65,
        "contract": "contracts/FundMe.sol:FundMe",
        "label": "transactionCount",
        "offset": 0,
        "slot": "2",
        "type": "t_uint256"
      },
      {
        "astId": 105,
        "contract": "contracts/FundMe.sol:FundMe",
        "label": "transactions",
        "offset": 0,
        "slot": "3",
        "type": "t_array(t_struct(TransferStruct)101_storage)dyn_storage"
      },
      {
        "astId": 108,
        "contract": "contracts/FundMe.sol:FundMe",
        "label": "s_priceFeed",
        "offset": 0,
        "slot": "4",
        "type": "t_contract(AggregatorV3Interface)45"
      }
    ],
    "types": {
      "t_address": {
        "encoding": "inplace",
        "label": "address",
        "numberOfBytes": "20"
      },
      "t_array(t_address)dyn_storage": {
        "base": "t_address",
        "encoding": "dynamic_array",
        "label": "address[]",
        "numberOfBytes": "32"
      },
      "t_array(t_struct(TransferStruct)101_storage)dyn_storage": {
        "base": "t_struct(TransferStruct)101_storage",
        "encoding": "dynamic_array",
        "label": "struct FundMe.TransferStruct[]",
        "numberOfBytes": "32"
      },
      "t_contract(AggregatorV3Interface)45": {
        "encoding": "inplace",
        "label": "contract AggregatorV3Interface",
        "numberOfBytes": "20"
      },
      "t_mapping(t_address,t_uint256)": {
        "encoding": "mapping",
        "key": "t_address",
        "label": "mapping(address => uint256)",
        "numberOfBytes": "32",
        "value": "t_uint256"
      },
      "t_string_storage": {
        "encoding": "bytes",
        "label": "string",
        "numberOfBytes": "32"
      },
      "t_struct(TransferStruct)101_storage": {
        "encoding": "inplace",
        "label": "struct FundMe.TransferStruct",
        "members": [
          {
            "astId": 90,
            "contract": "contracts/FundMe.sol:FundMe",
            "label": "sender",
            "offset": 0,
            "slot": "0",
            "type": "t_address"
          },
          {
            "astId": 92,
            "contract": "contracts/FundMe.sol:FundMe",
            "label": "receiver",
            "offset": 0,
            "slot": "1",
            "type": "t_address"
          },
          {
            "astId": 94,
            "contract": "contracts/FundMe.sol:FundMe",
            "label": "amount",
            "offset": 0,
            "slot": "2",
            "type": "t_uint256"
          },
          {
            "astId": 96,
            "contract": "contracts/FundMe.sol:FundMe",
            "label": "message",
            "offset": 0,
            "slot": "3",
            "type": "t_string_storage"
          },
          {
            "astId": 98,
            "contract": "contracts/FundMe.sol:FundMe",
            "label": "timestamp",
            "offset": 0,
            "slot": "4",
            "type": "t_uint256"
          },
          {
            "astId": 100,
            "contract": "contracts/FundMe.sol:FundMe",
            "label": "keyword",
            "offset": 0,
            "slot": "5",
            "type": "t_string_storage"
          }
        ],
        "numberOfBytes": "192"
      },
      "t_uint256": {
        "encoding": "inplace",
        "label": "uint256",
        "numberOfBytes": "32"
      }
    }
  }
}